:100000000C9434000C943E000C943E000C943E0082
:100010000C943E000C943E000C943E000C943E0068
:100020000C943E000C943E000C943E000C943E0058
:100030000C943E000C943E000C943E000C943E0048
:100040000C943E000C943E000C943E000C943E0038
:100050000C943E000C943E000C943E000C943E0028
:100060000C943E000C943E0011241FBECFEFD8E04C
:10007000DEBFCDBF0E9455000C9460000C940000C0
:100080005C9828E030E040E85A98982F942319F0C3
:100090009BB1986002C09BB1977F9BB95A9A4695D5
:1000A0002150310989F75C9A08958AB18F618AB924
:1000B000589A599887EA0E94400080E090E008959D
:0400C000F894FFCFE2
:00000001FF
